:100000000C9462000C948A000C948A000C94E30A0D
:100010000C94E30A0C94E30A0C948A000C948A0072
:100020000C948A000C948A000C948A000C94270A81
:100030000C948A000C948A000C948A000C948A0018
:100040000C9485090C948A000C94F5090C94CF0942
:100050000C948A000C948A000C948A000C948A00F8
:100060000C94ED0A0C948A00000000002400270084
:100070002A0000000000250028002B0000000000DE
:1000800023002600290004040404040404040202DA
:100090000202020203030303030301020408102007
:1000A0004080010204081020010204081020000012
:1000B0000008000201000003040700000000000027
:1000C00000000C0C11241FBECFEFD8E0DEBFCDBF67
:1000D00012E0A0E0B1E0ECE8F8E202C005900D9279
:1000E000A230B107D9F723E0A2E0B2E001C01D922F
:1000F000A33CB207E1F710E0C2E6D0E004C02197CC
:10010000FE010E941913C136D107C9F70E94A60C3F
:100110000C9444140C94000008950895CF92DF923B
:10012000EF92FF92DC01A03282E0B807D4F5A53B44
:10013000B10514F0A4EBB0E04091BD0328E830E035
:10014000241B310947FD3395220F331F220F331F24
:100150006901330FEE08FF084091BE0328E532E045
:10016000241B310947FD3395220F331F220F331F04
:10017000032E000C440B550B2C193D094E095F0949
:10018000B7FF02C0B0E0A0E00E94D41224EB30E040
:1001900040E050E00E94AA12C20ED31EE41EF51EDB
:1001A000D601E091BC03EC3080F52091BD0388E8D6
:1001B00090E0821B910927FD9395880F991F880F66
:1001C000991FA817B90784F02091BE0388E592E033
:1001D000821B910927FD9395880F991F880F991FFE
:1001E000A817B9070CF4CD010297880F991F4FB7D4
:1001F000F8942E2F30E0F901EE0FFF1FE20FF31FEE
:10020000E158FC4F928381834FBFFF90EF90DF90C6
:10021000CF900895833081F028F4813099F08230B6
:10022000A9F008958730A9F08830C9F08430B1F47E
:10023000809180008F7D03C0809180008F778093B4
:100240008000089584B58F7784BD089584B58F7D2F
:10025000FBCF8091B0008F778093B000089580919C
:10026000B0008F7DF9CFCF93DF93282F30E0F901D5
:10027000E255FF4F8491F901E656FF4FD491F90101
:10028000EA57FF4FC491CC23A1F081110E940A01CB
:10029000EC2FF0E0EE0FFF1FE458FF4FA591B49153
:1002A000EC91ED2381E090E009F480E0DF91CF91C3
:1002B000089580E090E0FACF1F93CF93DF93282F2B
:1002C00030E0F901E255FF4F8491F901E656FF4F06
:1002D000D491F901EA57FF4FC491CC23A9F0162F0E
:1002E00081110E940A01EC2FF0E0EE0FFF1FEE5883
:1002F000FF4FA591B4918FB7F894EC91111108C0FC
:10030000D095DE23DC938FBFDF91CF911F910895AD
:10031000DE2BF8CFCF93DF9390E0FC01E656FF4F42
:1003200024918A579F4FFC0184918823D1F090E05B
:10033000880F991FFC01E859FF4FA591B491FC016A
:10034000EE58FF4FC591D49161110EC09FB7F8943C
:100350008C91E22FE0958E238C932881E223E88311
:100360009FBFDF91CF9108958FB7F894EC91E22B66
:10037000EC938FBFF6CF3FB7F89480915A029091DB
:100380005B02A0915C02B0915D0226B5A89B05C0FE
:100390002F3F19F00196A11DB11D3FBFBA2FA92F04
:1003A000982F8827BC01CD01620F711D811D911D01
:1003B00042E0660F771F881F991F4A95D1F708956D
:1003C0008F929F92AF92BF92CF92DF92EF92FF9265
:1003D0004B015C010E94BB016B017C010E94BB01CF
:1003E0006C197D098E099F09683E7340810591054E
:1003F000A8F321E0821A9108A108B10888EEC80E7E
:1004000083E0D81EE11CF11C81149104A104B10405
:1004100029F7FF90EF90DF90CF90BF90AF909F9023
:100420008F900895AF92BF92CF92DF92EF92FF929A
:100430000F931F93CF93DF936C017B018B01040F0C
:10044000151FEB015E01AE18BF08C017D10759F0A8
:100450006991D601ED91FC910190F081E02DC601EA
:100460000995892B79F7C501DF91CF911F910F91E4
:10047000FF90EF90DF90CF90BF90AF900895FC0178
:10048000538D448D252F30E0842F90E0821B930BF9
:10049000541710F0CF96089501970895FC01918D9F
:1004A000828D981761F0A28DAE0FBF2FB11D5D96A2
:1004B0008C91928D9F5F9F73928F90E008958FEF44
:1004C0009FEF0895FC01918D828D981731F0828DF8
:1004D000E80FF11D858D90E008958FEF9FEF08954F
:1004E000FC01918D228D892F90E0805C9F4F821BB3
:1004F00091098F739927089586ED92E00E9470020A
:1005000021E0892B09F420E0822F089580E090E01B
:10051000892B29F00E947C0281110C94000008951F
:10052000FC01A48DA80FB92FB11DA35ABF4F2C9168
:10053000848D90E001968F739927848FA689B7895F
:100540002C93A089B1898C91837080648C93938D56
:10055000848D981306C00288F389E02D80818F7DF9
:1005600080830895EF92FF920F931F93CF93DF93B1
:10057000EC0181E0888F9B8D8C8D98131AC0E889DF
:10058000F989808185FF15C09FB7F894EE89FF89AE
:100590006083E889F98980818370806480839FBF4C
:1005A00081E090E0DF91CF911F910F91FF90EF904C
:1005B0000895F62E0B8D10E00F5F1F4F0F7311275C
:1005C000E02E8C8D8E110CC00FB607FCFACFE88997
:1005D000F989808185FFF5CFCE010E949002F1CF8D
:1005E000EB8DEC0FFD2FF11DE35AFF4FF0829FB70B
:1005F000F8940B8FEA89FB8980818062CFCFCF93FB
:10060000DF93EC01888D8823B9F0AA89BB89E8893A
:10061000F9898C9185FD03C0808186FD0DC00FB6E0
:1006200007FCF7CF8C9185FFF2CF808185FFEDCF5E
:10063000CE010E949002E9CFDF91CF9108950895F5
:10064000FC01908190539A3008F090E081818053B2
:100650002AE0929F800D1124089520912302260FF5
:100660003327331F21323105ECF42091AC02FC0119
:1006700090E080E0243069F082E00895A0912302A8
:100680002191AC014D5F5D4FA40FB52FB11D2C938F
:100690000196861798F380912302680F60932302D6
:1006A00080E0089581E008951092AC0281E080938B
:1006B000AB021092860261E082E10E945C0161E07F
:1006C00083E10E945C01E9EBF0E080818E7F808312
:1006D00080818D7F808388E48093B80085E4809357
:1006E000BC00089510926502109264021092B30249
:1006F0001092D5020E9454038CE890E0909363021C
:10070000809362028DE890E0909361028093600292
:100710000895CF93DF9391E0909302028823B9F07C
:10072000C091B800D091BA008091BC008A7B8093C0
:10073000BC0060E082E10E945C0160E083E10E9415
:100740005C010E945403D093BA00C093B800DF91BB
:10075000CF9108958F929F92AF92BF92CF92DF92E6
:10076000EF92FF920F931F93CF93DF93D091D50217
:10077000D13208F0D7C0182FC091D4020E94BB011B
:100780006B017C018091AC0281116BC082E080938F
:10079000AC021093AB028FEF8093AA021092A902D1
:1007A000D093A802A4EBB2E0E8E8F2E080E0D8132E
:1007B00091C01092870280918702CC0FC82BC09302
:1007C000870280918602813009F088C010928602EB
:1007D0000E94BB016B017C01809187028093BB006A
:1007E0008091AE029091AF02A091B002B091B1029F
:1007F000892B8A2B8B2BA1F00E94BB010091AE02AA
:100800001091AF022091B0023091B1026C197D09B4
:100810008E099F09061717072807390708F442C0F1
:100820008091BC0083FDD8CF85EC8093BC000E94F2
:10083000BB016B017C018091AC02823009F450C095
:100840008091AA028F3F09F46FC08091AA02803282
:1008500009F46CC08091AA02803309F469C084E075
:1008600026C08091AE029091AF02A091B002B091EB
:10087000B102892B8A2B8B2B09F484CF0E94BB01F8
:100880008090AE029090AF02A090B002B090B10202
:100890006C197D098E099F0986169706A806B90668
:1008A00008F070CF8091AD020E94890385E010921C
:1008B000B3021092D5021092B202DF91CF911F9134
:1008C0000F91FF90EF90DF90CF90BF90AF909F90EF
:1008D0008F9008959D9191938F5F69CF85EEA5CFFD
:1008E0008091AE029091AF02A091B002B091B1029E
:1008F000892B8A2B8B2B09F49ECF0E94BB01009180
:10090000AE021091AF022091B0023091B1026C1989
:100910007D098E099F09061717072807390708F070
:100920008ACFC0CF81E0C3CF80E0C1CF82E0BFCF0C
:1009300083E0BDCF1F93CF93DF93EA01122FDC0139
:1009400011968D919C91DC01ED91FC910280F381D7
:10095000E02D0995C817D90729F4812F0E94AA0311
:1009600091E0811190E0892FDF91CF911F9108953F
:10097000CF93DF93EC018B818823A1F0888191E0F4
:100980009093B2028093D4021092B3021092D502D7
:1009900081E00E94AA0391E0811190E0892FDF910C
:1009A000CF9108950E94720381E08B83CE010E9453
:1009B000B804982F8111E2CFF1CF0895E09165023C
:1009C00080916402E81730F4F0E0EA59FD4F80812D
:1009D00090E008958FEF9FEF0895909165028091C8
:1009E00064022FEF3FEF981748F4E92FF0E0EA593F
:1009F000FD4F208130E09F5F90936502C90108950B
:100A00008091640290916502891B990B0895CF92A1
:100A1000DF92EF92FF920F931F93CF93DF937C01AE
:100A2000CB018A012091B202222389F0EB016B01F4
:100A3000C40ED51ECC15DD0569F06991D701ED9185
:100A4000FC910190F081E02DC7010995F3CF642F4F
:100A50000E942D03C801DF91CF911F910F91FF904C
:100A6000EF90DF90CF900895CF93DF931F92CDB793
:100A7000DEB769832091B2022223F9F02091D502DA
:100A8000203258F021E030E0FC013383228390E0F3
:100A900080E00F90DF91CF9108958091B302E82F0D
:100AA000F0E0EC54FD4F998190838F5F8093B30207
:100AB0008093D50281E090E0ECCF61E0CE01019619
:100AC0000E942D03F7CF90E080E00895FB01019094
:100AD0000020E9F73197AF01461B570BDC01ED9180
:100AE000FC910280F381E02D09948F929F92AF9246
:100AF000BF920F931F93CF93DF93CDB7DEB7A1972C
:100B00000FB6F894DEBF0FBECDBF19A2423008F475
:100B10004AE08E010F5D1F4F842E912CB12CA12C29
:100B2000A50194010E94DC12E62FB901CA01EA3046
:100B300044F5E05DD801EE938D01232B242B252B6A
:100B400079F790E080E0109769F0FD0101900020B6
:100B5000E9F73197AF014A1B5B0BBD0184EA93E0D3
:100B60000E941202A1960FB6F894DEBF0FBECDBF51
:100B7000DF91CF911F910F91BF90AF909F908F9079
:100B80000895E95CD7CF2F923F924F925F926F9278
:100B90007F928F929F92AF92BF92CF92DF92EF920D
:100BA000FF920F931F93CF93DF935C011B016A01A8
:100BB000F12CE12CD50114968D919C9186010E1992
:100BC0001F098017910708F48C01F501D0810E945C
:100BD000BB012B013C018091AC02811172C0C02F7E
:100BE000013208F0C0E2F1E0F093AC0221E0C6016E
:100BF000801B910BE816F90608F420E02093AB0265
:100C00008FEF8093AA021092A9028C0F8093A80202
:100C1000A1E0A093870280918702DD0FD82BD093AB
:100C2000870280918602813009F090C0109286027E
:100C30000E94BB012B013C01809187028093BB0085
:100C40008091AE029091AF02A091B002B091B1023A
:100C5000892B8A2B8B2BA1F00E94BB012091AE0225
:100C60003091AF024091B0025091B1026419750900
:100C700086099709261737074807590708F442C01D
:100C80008091BC0083FDD8CFB5ECB093BC000E942E
:100C9000BB012B013C018091AC02813009F45AC0A8
:100CA0008091A9028C1710F4C091A902A8E8B2E0C3
:100CB000E6E6F2E080E08C1751F19D9191938F5F11
:100CC000FACF8091AE029091AF02A091B002B091A4
:100CD000B102892B8A2B8B2B09F47DCF0E94BB019B
:100CE0002091AE023091AF024091B0025091B1021A
:100CF00064197509860997092617370748075907A0
:100D000008F069CF8091AD020E948903C0E0109283
:100D10006502C0936402C017110609F057C0410173
:100D20008E0C9F1CE401CE01881999098017910748
:100D300098F5D50111968D919C91DC01ED91FC9176
:100D40000284F385E02D09958993EDCFE5EEE093DC
:100D5000BC009DCF8091AE029091AF02A091B002F5
:100D6000B091B102892B8A2B8B2B09F494CF0E946E
:100D7000BB012091AE023091AF024091B002509180
:100D8000B1026419750986099709261737074807BC
:100D9000590708F080CFB6CFE00EF11EEC14FD0429
:100DA00008F408CF81E0DF91CF911F910F91FF9060
:100DB000EF90DF90CF90BF90AF909F908F907F90FB
:100DC0006F905F904F903F902F90089580E0EBCF11
:100DD000EF92FF920F931F93CF93DF9300D000D039
:100DE00000D01F92CDB7DEB78C011982E0905E0271
:100DF000F0905F02D70114968D919C911597892BE5
:100E0000E9F08C9191E09093B2028093D402109219
:100E1000B3021092D50220E041E050E0BE016F5FC6
:100E20007F4FC7010E949A04882341F047E050E0B9
:100E3000BE016F5F7F4FC7010E94C305E981EF7755
:100E4000FA81FB804D815E818F81282F30E094E014
:100E5000359527959A95E1F7922F990F990F291BB0
:100E6000220F280FD8012C93852F90E024E0959530
:100E700087952A95E1F7982F990F990F891B880F6D
:100E8000850F11968C931197642F70E034E075955F
:100E900067953A95E1F7862F880F880F681B660FD4
:100EA000640F12966C9312974F2D50E064E05595A5
:100EB00047956A95E1F7842F880F880F481B440FE8
:100EC0004F0D13964C9313972F2F30E074E0359508
:100ED00027957A95E1F7822F880F880F281B220F1C
:100EE0002F0F14962C9314978E2F90E0F4E0959585
:100EF0008795FA95E1F7982F990F990F891B880F1D
:100F00008E0F15968C93C80127960FB6F894DEBF06
:100F10000FBECDBFDF91CF911F910F91FF90EF904A
:100F20000895CF93DF93EC0160E08E810E945C0115
:100F300061E08E810E945C0160E08E810E945C0114
:100F40008BE891E00197F1F7DF91CF910895CF926F
:100F5000DF92EF92FF920F931F93CF93DF936C0179
:100F60007C0187E0E80EF11CD0E0C0E0062F10E025
:100F7000B8010C2E02C0759567950A94E2F761706E
:100F8000F70181917F010E945C012196C430D10557
:100F900079F7C601DF91CF911F910F91FF90EF90EC
:100FA000DF90CF900C949107CF92DF92EF92FF9257
:100FB0000F931F93CF93DF93EC01F62E642F8C8158
:100FC0000E945C018D818F3F19F060E00E945C01FE
:100FD0000F2D10E08F8584FF25C06E0187E0C80EBD
:100FE000D11CF12CE12CB8010E2C02C0759567952F
:100FF0000A94E2F76170F60181916F010E945C0131
:10100000FFEFEF1AFF0A88E0E816F10461F7CE015E
:10101000DF91CF911F910F91FF90EF90DF90CF90D4
:101020000C949107B80184E0759567958A95E1F76E
:10103000CE010E94A7076F2DCE01DF91CF911F91A6
:101040000F91FF90EF90DF90CF900C94A70740E0B6
:10105000682F84EA93E00C94D40781E00E9427086B
:101060008BE39FE10197F1F70895CF93DF938230EF
:1010700029F49091B30398609093B3038093B703DE
:101080001092B80380E48093B90380E18093BA039F
:1010900080E58093BB0361E08091A8030E948A01F0
:1010A0008091A9038F3F19F061E00E948A0161E0FD
:1010B0008091AA030E948A01C4EAD3E09E01245AC7
:1010C00033408091B30384FD0BC084E090E021960F
:1010D0002817390744F461E08E810E948A01EECF1F
:1010E00088E090E0F4CF8BE39DE00197F1F760E0BA
:1010F0008091A8030E945C0160E08091AA030E9495
:101100005C018091A9038F3F19F060E00E945C01AF
:101110008091B30384FD34C063E084EA93E00E94CD
:10112000A707CBE4D6E4CE010197F1F763E084EAA8
:1011300093E00E94A7072197F1F763E084EA93E028
:101140000E94A70783E592E00197F1F762E084EA45
:1011500093E00E94A7078091B30380620E94270852
:1011600084E08093B4038CE00E9427080E942D083D
:1011700082E08093B50386E0DF91CF910C9427083D
:1011800080620E9427088BE496E40197F1F7809132
:10119000B30380620E94270883E592E00197F1F78C
:1011A0008091B30380620E942708D5CF9091B70346
:1011B000691710F06FEF690FE62FF0E0EC55FC4F68
:1011C0009489890F80680C94270841E00E94D40715
:1011D00081E090E008950F931F93CF93DF938B01ED
:1011E00028E0829FC001112480640E942708E80142
:1011F000085F1F4F699184EA93E00E94E508C017D9
:10120000D107C1F7DF91CF911F910F910895CF9230
:10121000DF92EF92FF9297FF18C06B017C0141E0D3
:101220006DE284EA93E00E94D40766277727CB011A
:101230006C197D098E099F094AE00E947505019687
:10124000FF90EF90DF90CF9008954AE0FF90EF90ED
:10125000DF90CF900C947505CF92DF92EF92FF92C2
:101260006C01092E000CEE08FF080A9764F46DE982
:1012700071E084EA93E00E9466056DE971E086ED15
:1012800092E00E946605C701B601FF90EF90DF90E3
:10129000CF900C94070985ED8093BC008091AE023D
:1012A0009091AF02A091B002B091B1020796A11D3A
:1012B000B11D23E0B695A795979587952A95D1F707
:1012C0002091BC0024FD03C01092AC02089540910F
:1012D000AE025091AF026091B0027091B102452B05
:1012E000462B472B69F30097A105B10541F02AE28F
:1012F0002A95F1F700C00197A109B109E1CF8091CA
:10130000AD020C9489030C9494121F920F920FB6A5
:101310000F9211242F933F938F939F93AF93BF937B
:101320008091560290915702A0915802B0915902B3
:101330003091550223E0230F2D3758F50196A11D5A
:10134000B11D209355028093560290935702A093AB
:101350005802B093590280915A0290915B02A09179
:101360005C02B0915D020196A11DB11D80935A02ED
:1013700090935B02A0935C02B0935D02BF91AF912A
:101380009F918F913F912F910F900FBE0F901F90C3
:10139000189526E8230F0296A11DB11DD2CF1F92EA
:1013A0000F920FB60F9211242F933F934F935F9399
:1013B0006F937F938F939F93AF93BF93EF93FF931D
:1013C00086ED92E00E949002FF91EF91BF91AF9164
:1013D0009F918F917F916F915F914F913F912F914D
:1013E0000F900FBE0F901F9018951F920F920FB67F
:1013F0000F9211242F938F939F93EF93FF93E0917C
:10140000E602F091E7028081E091EC02F091ED02BA
:1014100082FD1BC090818091EF028F5F8F732091BE
:10142000F002821741F0E091EF02F0E0EA52FD4F46
:10143000958F8093EF02FF91EF919F918F912F9164
:101440000F900FBE0F901F9018958081F4CF1F92C0
:101450000F920FB60F9211242F933F934F935F93E8
:101460006F937F938F939F93AF93BF93CF93DF93AC
:10147000EF93FF9380914802C091A303D0E087FFD0
:1014800024C01092850010928400809148028F5FE2
:101490008093480280914802082E000C990B8C170B
:1014A0009D0724F4809148028C30C4F1809184001F
:1014B00090918500049680349C4908F47AC080910C
:1014C000840090918500049676C080914802082E91
:1014D000000C990B8C179D07C4F6E09148028E2FE3
:1014E000EE0F990BFC01EE0FFF1FE80FF91FE158FB
:1014F000FC4F808186FFC9CFE09148028E2FEE0F0E
:10150000990BFC01EE0FFF1FE80FF91FE158FC4F8C
:10151000808160E08F730E945C01B7CF20918400CE
:1015200030918500E09148028E2FEE0F990BFC015F
:10153000EE0FFF1FE80FF91FE158FC4F81819281E8
:10154000820F931F9093890080938800E091480256
:101550008E2FEE0F990BFC01EE0FFF1FE80FF91F06
:10156000E158FC4F808186FF11C0E09148028E2F28
:10157000EE0F990BFC01EE0FFF1FE80FF91FE1586A
:10158000FC4F808161E08F730E945C01FF91EF91BD
:10159000DF91CF91BF91AF919F918F917F916F918B
:1015A0005F914F913F912F910F900FBE0F901F9021
:1015B000189580E49CE990938900809388008FEFD0
:1015C00080934802E3CF1F920F920FB60F9211241F
:1015D0000F900FBE0F901F9018951F920F920FB68D
:1015E0000F9211242F933F934F935F936F937F93A9
:1015F0008F939F93AF93BF93EF93FF938091B90025
:10160000887F803609F44AC0F0F5883209F4A7C013
:1016100018F5803109F49BC0B8F4882309F4F9C0A7
:10162000883009F494C0FF91EF91BF91AF919F91E1
:101630008F917F916F915F914F913F912F910F907B
:101640000FBE0F901F901895883109F488C0803222
:1016500051F78093AA0214C0803409F49DC040F46D
:101660008033B9F38833F9F68093AA0285ECB0C0D1
:10167000803509F485C0883509F496C0883499F618
:101680000E944B09D0CF883909F48CC038F58837CF
:1016900029F050F4883611F0803729F683E08093E2
:1016A000AC021092450257C0883809F47BC08039DB
:1016B00019F0803809F0B7CF80914502803208F0E8
:1016C00071C0E091450281E08E0F809345028091C8
:1016D000BB00F0E0EB5DFD4F80833DC0803B39F007
:1016E000E0F4803A09F479C0883A09F09CCF84E0AC
:1016F0008093AC021092240210922302E0916202C5
:10170000F091630209958091230281110FC081E05D
:10171000809323021092030209C0803C09F4A6CFF3
:10172000883C09F4A3CF883B09F07DCFE0912402E7
:1017300081E08E0F80932402F0E0ED5FFD4F808109
:101740008093BB00909124028091230229C0809154
:1017500087028093BB0085EC8093BC0064CF90919E
:10176000A9028091A802981758F5E091A90281E09A
:101770008E0F8093A902F0E0E857FD4F8081E9CFFA
:10178000E091A90281E08E0F8093A9028091BB00B5
:10179000F0E0E857FD4F80839091A9028091A80264
:1017A0009817C8F285E8D8CFE091A90281E08E0FA2
:1017B0008093A9028091BB00F0E0E857FD4F808341
:1017C0008091AB0281115CCF81E08093860284EA34
:1017D0008093BC001092AC0226CF85EC8093BC00B5
:1017E0001092AC0280914502803230F4E0914502C3
:1017F000F0E0EB5DFD4F10826091450270E0E091FA
:101800006002F091610285E292E009951092450232
:101810000ACF1092AA0234CF1092D9021092D802A5
:1018200088EE93E0A0E0B0E08093DA029093DB02D0
:10183000A093DC02B093DD0222E231E03093D702C4
:101840002093D60225EC30E03093E3022093E202AD
:1018500024EC30E03093E5022093E40220EC30E009
:101860003093E7022093E60221EC30E03093E90266
:101870002093E80222EC30E03093EB022093EA025E
:1018800026EC30E03093ED022093EC021092EF0250
:101890001092F0021092F1021092F202109276036E
:1018A000109275038093770390937803A093790344
:1018B000B0937A0384E391E090937403809373036D
:1018C0008091A3038C30F0F591E0980F9093A303DF
:1018D0008093BC0390E0FC01EE0FFF1FE80FF91F9F
:1018E000E158FC4F88EB9BE0928381831092A70321
:1018F0001092A60386E491E09093A5038093A4033D
:101900008DE08093A8038FEF8093A9038CE08093F0
:10191000AA038BE08093AB038AE08093AC0389E059
:101920008093AD0388E08093AE031092AF031092D2
:10193000B0031092B1031092B2031092B30381E08E
:101940000C9435088FEF8093BC03D0CFCF93DF93F7
:10195000CDB7DEB72F970FB6F894DEBF0FBECDBF61
:10196000789484B5826084BD84B5816084BD85B57A
:10197000826085BD85B5816085BD80916E00816086
:1019800080936E001092810080918100826080932C
:10199000810080918100816080938100809180002E
:1019A0008160809380008091B10084608093B10059
:1019B0008091B00081608093B00080917A00846053
:1019C00080937A0080917A00826080937A0080917F
:1019D0007A00816080937A0080917A008068809399
:1019E0007A001092C1000E94720380915E02909171
:1019F0005F02009711F00E94BB1386E090E00E9406
:101A00001F138C0188E6F801808383E793E09283BB
:101A10008183138280E290E09583848310935F0238
:101A200000935E020E94720381E0F8018383C80183
:101A30000E94B80482E00E943508E091E602F0912D
:101A4000E70282E08083E091E202F091E3021082FB
:101A5000E091E402F091E5028FEC80831092EE02B7
:101A6000E091EA02F091EB0286E08083E091E802E7
:101A7000F091E902808180618083E091E802F09139
:101A8000E902808188608083E091E802F091E902B8
:101A9000808180688083E091E802F091E902808192
:101AA0008F7D80838091BC038C3008F051C061E051
:101AB00083E00E948A018091BC03282F30E0F90165
:101AC000EE0FFF1FE20FF31FE158FC4F9081907C57
:101AD000936090831092BD031092BE032CE0622F9E
:101AE0000E940D13829FB001112430E020E0AB0171
:101AF000420F531FFA01EE0FFF1FE40FF51FE158CD
:101B0000FC4F908196FD16C02F5F3F4F2C30310562
:101B100071F781110FC01092800082E080938100E4
:101B20001092850010928400B19A80916F008260BB
:101B300080936F00E091BC038E2F90E0FC01EE0FCC
:101B4000FF1FE80FF91FE158FC4F808180648083FC
:101B500060E086E00E948A0160E085E00E948A01E0
:101B600060E084E00E948A0160E082E00E948A01D5
:101B700061E087E00E948A0160E087E00E945C01EA
:101B800060E080E00E94D6086EE471E084EA93E0B1
:101B90000E9466056EE471E086ED92E00E946605A3
:101BA00061E080E00E94D60862E671E084EA93E09A
:101BB0000E94660562E671E086ED92E00E9466058D
:101BC00068EB7BE080E090E00E94E0011F8680915E
:101BD0005E0290915F02FC0124813581232B91F0FC
:101BE000208131E03093B2022093D4021092B302EC
:101BF0001092D50221E041E050E0BE01615F7F4FCD
:101C00000E949A0441E050E0CE0101967C01BC01A3
:101C100080915E0290915F020E94C305898190E0ED
:101C2000880F892F881F990B892B09F469C08CE7CD
:101C300091E00E942003182F87E791E00E94200383
:101C4000082F8FE791E00E942003D82E82E891E0D0
:101C50000E942003C82E85E891E00E942003382FBF
:101C600086E0F70111928A95E9F72AE0832F622F27
:101C70000E940D13982F880F890F880F830F8A8376
:101C80008C2D0E940D13982F880F890F880F8C0DB3
:101C90008B838D2D0E940D13982F880F890F880F2D
:101CA0008D0D8C83802F0E940D13982F880F890F24
:101CB000880F800F8E8385E08F83812F0E940D1304
:101CC000982F880F890F880F810F888780915E0277
:101CD00090915F02FC01248135812830310580F02C
:101CE000208131E03093B2022093D4021092B302EB
:101CF0001092D50221E048E050E0B7010E949A041A
:101D000000E010E0CE0109960E94E80682E00E9401
:101D10003301892B09F0C4C10E942D0860E080E0E6
:101D20000E94D60868E871E084EA93E00E946605A4
:101D300068E871E086ED92E00E94660561E088E067
:101D40000E94D60866E971E084EA93E00E94660585
:101D500066E971E086ED92E00E94660586E00E94E9
:101D60003301892B11F5C0904B02D0904C02FFEF4C
:101D7000CF1ADF0AD0924C02C0924B0261E088E099
:101D80000E94D608C6010E942C0968EC70E080E031
:101D900090E00E94E00180914B0290914C024897A4
:101DA00021F410924C0210924B0285E00E94330104
:101DB000892B11F5C0904902D0904A028FEFC81AC2
:101DC000D80AD0924A02C092490261E08BE00E9498
:101DD000D608C6010E942C0968EC70E080E090E013
:101DE0000E94E0018091490290914A02CC9721F42F
:101DF00010924A021092490284E00E943301892B1A
:101E000009F0ACCF60914B0290E080E00E949C1200
:101E10006091490281E090E00E949C1260E080E0C5
:101E20000E94D6086FE971E084EA93E00E9466059B
:101E30006FE971E086ED92E00E94660561E080E066
:101E40000E94D60860EB71E084EA93E00E94660588
:101E500060EB71E086ED92E00E94660590E080E024
:101E60000E94830990E00E942C096FED71E084EAE2
:101E700093E00E9466056FED71E086ED92E00E94AE
:101E8000660581E090E00E94830990E00E942C09A1
:101E90006BE971E084EA93E00E94660565EB71E00E
:101EA00084EA93E00E9466056BE971E086ED92E0BA
:101EB0000E94660565EB71E086ED92E00E94660582
:101EC00068E873E180E090E00E94E00110924C022B
:101ED00010924B0210924A02109249020E942D0861
:101EE00060E080E00E94D6086BEB71E084EA93E04A
:101EF0000E9466056BEB71E086ED92E00E9466053C
:101F000061E088E00E94D60866E971E084EA93E027
:101F10000E94660566E971E086ED92E00E94660522
:101F200086E00E943301892B11F5C0904F02D090BA
:101F300050029FEFC91AD90AD0925002C0924F02A4
:101F400061E088E00E94D608C6010E942C0968EC76
:101F500070E080E090E00E94E00180914F0290915B
:101F60005002489721F41092500210924F0285E0DF
:101F70000E943301892B11F5C0904D02D0904E0282
:101F8000EFEFCE1ADE0AD0924E02C0924D0261E00F
:101F90008BE00E94D608C6010E942C0968EC70E014
:101FA00080E090E00E94E00180914D0290914E020D
:101FB000CC9721F410924E0210924D0284E00E94C0
:101FC0003301892B09F0ACCF60914F0282E090E0A1
:101FD0000E949C1260914D0283E090E00E949C124E
:101FE00060E080E00E94D6086AEC71E084EA93E049
:101FF0000E9466056AEC71E086ED92E00E9466053B
:1020000061E080E00E94D60860EB71E084EA93E032
:102010000E94660560EB71E086ED92E00E94660525
:1020200082E090E00E94830990E00E942C096FED0D
:1020300071E084EA93E00E9466056FED71E086ED41
:1020400092E00E94660583E090E00E94830990E0A0
:102050000E942C096BE971E084EA93E00E94660516
:102060006BE971E086ED92E00E94660565EB71E038
:1020700084EA93E00E94660565EB71E086ED92E0EC
:102080000E94660568E873E180E090E00E94E0014C
:102090001092500210924F0210924E0210924D0276
:1020A0000E942D0860E080E00E94D6086BED71E090
:1020B00084EA93E00E9466056BED71E086ED92E0A4
:1020C0000E94660560E086E00E94D6088C8590E05C
:1020D00090935402809353020E942C096FED71E09B
:1020E00084EA93E00E9466056FED71E086ED92E070
:1020F0000E9466058D8590E0909352028093510274
:102100000E942C096FED71E084EA93E00E9466055D
:102110006FED71E086ED92E00E9466058E8590E09D
:102120000E942C09809153029091540260E171E069
:102130000C9714F060E071E085E00E94EB0868E025
:1021400071E086E00E94EB0860E08EE00E94D60815
:1021500065E084EA93E00E94E50860E08FE00E9479
:10216000D60866E084EA93E00E94E50861E080E03A
:102170000E94D60861EE71E084EA93E00E94660551
:1021800061EE71E086ED92E00E9466058B8590E03D
:102190000E942C0968EE71E084EA93E00E946605D3
:1021A00068EE71E086ED92E00E9466058A8590E017
:1021B0000E942C0968EE71E084EA93E00E946605B3
:1021C00068EE71E086ED92E00E946605698570E038
:1021D0006053784F90E080E00E94070960E087E05C
:1021E0000E945C0190E080E00E948E0068EE73E047
:1021F00080E090E00E94E00190E080E00E9483098E
:1022000020915302309154028217130609F080C1C5
:1022100081E090E00E9483092091510230915202A6
:102220008217130609F074C10E942D0860E080E057
:102230000E94D60862E671E084EA93E00E94660597
:1022400063E671E086ED92E00E94660561E087E05A
:102250000E945C0184EB90E00E948E0068EE73E0C7
:1022600080E090E00E94E00190E080E00E948E001B
:1022700068E873E180E090E00E94E00184EB90E088
:102280000E948E0068EE73E080E090E00E94E00122
:1022900090E080E00E948E0068E873E180E090E0CA
:1022A0000E94E00184EB90E00E948E0068EE73E0F3
:1022B00080E090E00E94E00190E080E00E948E00CB
:1022C00068E873E180E090E00E94E00184EB90E038
:1022D0000E948E0068EE73E080E090E00E94E001D2
:1022E00090E080E00E948E0068E873E180E090E07A
:1022F0000E94E00184EB90E00E948E0068EE73E0A3
:1023000080E090E00E94E00190E080E00E948E007A
:1023100068E873E180E090E00E94E00184EB90E0E7
:102320000E948E0068EE73E080E090E00E94E00181
:1023300090E080E00E948E0068E873E180E090E029
:102340000E94E00184EB90E00E948E0068EE73E052
:1023500080E090E00E94E00190E080E00E948E002A
:1023600068E873E180E090E00E94E00184EB90E097
:102370000E948E0068EE73E080E090E00E94E00131
:1023800090E080E00E948E0068E873E180E090E0D9
:102390000E94E00184EB90E00E948E0068EE73E002
:1023A00080E090E00E94E00190E080E00E948E00DA
:1023B00068E873E180E090E00E94E00184EB90E047
:1023C0000E948E0068EE73E080E090E00E94E001E1
:1023D00090E080E00E948E0068E873E180E090E089
:1023E0000E94E00184EB90E00E948E0068EE73E0B2
:1023F00080E090E00E94E00190E080E00E948E008A
:1024000068E873E180E090E00E94E00184EB90E0F6
:102410000E948E0068EE73E080E090E00E94E00190
:10242000C7010E94E80661E080E00E94D6086AEEDB
:1024300071E084EA93E00E9466056AEE71E086ED41
:1024400092E00E9466058C8190E090935402809304
:1024500053020E942C096FED71E084EA93E00E9420
:1024600066056FED71E086ED92E00E9466058D8154
:1024700090E090935202809351020E942C096FEDDC
:1024800071E084EA93E00E9466056FED71E086EDED
:1024900092E00E9466058E8190E00E942C0982E005
:1024A00090E00E948309D82E83E090E00E94830987
:1024B0002091530230915402D216130609F0B0CF86
:1024C00020915102309152028217130609F0A8CFD1
:1024D0000E942D0861E080E00E94D60861EF71E063
:1024E00084EA93E00E94660561EF71E086ED92E078
:1024F0000E94660560E087E00E945C0190E080E059
:102500000E948E0060ED77E080E090E00E94E001A4
:102510000115110509F4F6CB0E947C02882309F409
:10252000F1CB0E940000EECBF999FECF92BD81BDA8
:10253000F89A992780B50895262FF999FECF1FBAEA
:1025400092BD81BD20BD0FB6F894FA9AF99A0FBEDC
:1025500001960895052E97FB1EF400940E94C11267
:1025600057FD07D00E94DC1207FC03D04EF40C94F8
:10257000C11250954095309521953F4F4F4F5F4F79
:10258000089590958095709561957F4F8F4F9F4FDF
:1025900008950E94FE12A59F900DB49F900DA49FD8
:1025A000800D911D11240895B7FF0C94C9120E944B
:1025B000C912821B930B0895A1E21A2EAA1BBB1B02
:1025C000FD010DC0AA1FBB1FEE1FFF1FA217B307FF
:1025D000E407F50720F0A21BB30BE40BF50B661F15
:1025E000771F881F991F1A9469F7609570958095D9
:1025F00090959B01AC01BD01CF010895A29FB00150
:10260000B39FC001A39F700D811D1124911DB29F26
:10261000700D811D1124911D0895991B79E004C04E
:10262000991F961708F0961B881F7A95C9F7809511
:102630000895EE0FFF1F0590F491E02D09940F937C
:102640001F93CF93DF938230910510F482E090E0E6
:10265000E091C103F091C20330E020E0B0E0A0E0DF
:10266000309799F42115310509F44AC0281B390B1C
:1026700024303105D8F58A819B816115710589F176
:10268000FB0193838283FE0111C04081518102814D
:10269000138148175907E0F04817590799F4109724
:1026A00061F012960C93129713961C933296CF01F9
:1026B000DF91CF911F910F9108950093C103109363
:1026C000C203F4CF2115310551F04217530738F0FA
:1026D000A901DB019A01BD01DF01F801C1CFEF01C2
:1026E000F9CF9093C2038093C103CDCFFE01E20FD7
:1026F000F31F819391932250310939832883D7CFD7
:102700002091BF033091C003232B41F420911A0183
:1027100030911B013093C0032093BF032091180117
:10272000309119012115310541F42DB73EB7409183
:102730001C0150911D01241B350BE091BF03F0914A
:10274000C003E217F307A0F42E1B3F0B281739072D
:1027500078F0AC014E5F5F4F2417350748F04E0FFD
:102760005F1F5093C0034093BF03819391939FCF0A
:10277000F0E0E0E09CCFCF93DF930097E9F0FC011D
:10278000329713821282A091C103B091C203ED016E
:1027900030E020E01097A1F420813181820F931F57
:1027A0002091BF033091C0032817390709F061C099
:1027B000F093C003E093BF03DF91CF910895EA0146
:1027C000CE17DF07E8F54A815B819E01411551056F
:1027D000B1F7E901FB83EA8349915991C40FD51FF1
:1027E000EC17FD0761F4808191810296840F951F9B
:1027F000E90199838883828193819B838A83F0E0B6
:10280000E0E012968D919C9113970097B9F52D9168
:102810003C911197CD010296820F931F2091BF0327
:102820003091C0032817390739F6309751F51092C7
:10283000C2031092C103B093C003A093BF03BCCFE7
:10284000D383C28340815181840F951FC817D90754
:1028500061F44E5F5F4F88819981480F591F518302
:1028600040838A819B81938382832115310509F0FE
:10287000B0CFF093C203E093C1039ECFFD01DC0112
:0C288000C0CF13821282D7CFF894FFCF94
:10288C001C121C1010000000111B1511110000006F
:10289C000E111F11110000000000C3038000000086
:1028AC000000B20212023F02FF0270024E026202EC
:1028BC0000000000340507056305DD040005ED0488
:1028CC00DE0400000000E508120263051F034172DC
:1028DC006475696E6F20466973682046656564652A
:1028EC0072002020444556494345204F4E2F4F46F9
:1028FC004620004D6179203238203230323300329C
:10290C00333A31383A353800454E544552204F4E03
:10291C002054494D450030303A30303A30300020A8
:10292C0053544152542054494D4520534554200092
:10293C0041543A2000202020202000454E5445527E
:10294C00204F46462054494D450020204F464620F6
:10295C0054494D452053455420200054494D453A87
:10296C0000444154453A20002F0054494D453A202B
:10297C000020446576696365205475726E204F465D
:02298C00460003
:00000001FF
